{
  "_format": "hh-sol-artifact-1",
  "contractName": "MockOracle",
  "sourceName": "contracts/MockOracle.sol",
  "abi": [
    {
      "inputs": [
        {
          "internalType": "bytes32",
          "name": "",
          "type": "bytes32"
        }
      ],
      "name": "answers",
      "outputs": [
        {
          "internalType": "int256",
          "name": "",
          "type": "int256"
        }
      ],
      "stateMutability": "view",
      "type": "function"
    },
    {
      "inputs": [
        {
          "internalType": "bytes32",
          "name": "key",
          "type": "bytes32"
        }
      ],
      "name": "latestAnswer",
      "outputs": [
        {
          "internalType": "int256",
          "name": "",
          "type": "int256"
        }
      ],
      "stateMutability": "view",
      "type": "function"
    },
    {
      "inputs": [
        {
          "internalType": "bytes32",
          "name": "key",
          "type": "bytes32"
        },
        {
          "internalType": "int256",
          "name": "value",
          "type": "int256"
        }
      ],
      "name": "setAnswer",
      "outputs": [],
      "stateMutability": "nonpayable",
      "type": "function"
    }
  ],
  "bytecode": "0x608060405234801561001057600080fd5b5061011b806100206000396000f3fe6080604052348015600f57600080fd5b5060043610603c5760003560e01c8063084d47831460415780632f4fc237146070578063aac753b614608f575b600080fd5b605e604c36600460ac565b60009081526020819052604090205490565b60405190815260200160405180910390f35b608d607b36600460c4565b60009182526020829052604090912055565b005b605e609a36600460ac565b60006020819052908152604090205481565b60006020828403121560bd57600080fd5b5035919050565b6000806040838503121560d657600080fd5b5050803592602090910135915056fea264697066735822122093f7ac0cb4433ebe15ccf4dada656961ca219a62309a8f5c9ac8e4456397faaa64736f6c63430008180033",
  "linkReferences": {},
  "deployedLinkReferences": {}
}