{"contracts/MockOracle.sol":{"MockOracle":{"abi":[{"inputs":[{"internalType":"bytes32","name":"","type":"bytes32"}],"name":"answers","outputs":[{"internalType":"int256","name":"","type":"int256"}],"stateMutability":"view","type":"function"},{"inputs":[{"internalType":"bytes32","name":"key","type":"bytes32"}],"name":"latestAnswer","outputs":[{"internalType":"int256","name":"","type":"int256"}],"stateMutability":"view","type":"function"},{"inputs":[{"internalType":"bytes32","name":"key","type":"bytes32"},{"internalType":"int256","name":"value","type":"int256"}],"name":"setAnswer","outputs":[],"stateMutability":"nonpayable","type":"function"}],"evm":{"bytecode":{"linkReferences":{},"object":"608060405234801561001057600080fd5b5061011b806100206000396000f3fe6080604052348015600f57600080fd5b5060043610603c5760003560e01c8063084d47831460415780632f4fc237146070578063aac753b614608f575b600080fd5b605e604c36600460ac565b60009081526020819052604090205490565b60405190815260200160405180910390f35b608d607b36600460c4565b60009182526020829052604090912055565b005b605e609a36600460ac565b60006020819052908152604090205481565b60006020828403121560bd57600080fd5b5035919050565b6000806040838503121560d657600080fd5b5050803592602090910135915056fea264697066735822122093f7ac0cb4433ebe15ccf4dada656961ca219a62309a8f5c9ac8e4456397faaa64736f6c63430008180033","opcodes":"PUSH1 0x80 PUSH1 0x40 MSTORE CALLVALUE DUP1 ISZERO PUSH2 0x10 JUMPI PUSH1 0x0 DUP1 REVERT JUMPDEST POP PUSH2 0x11B DUP1 PUSH2 0x20 PUSH1 0x0 CODECOPY PUSH1 0x0 RETURN INVALID PUSH1 0x80 PUSH1 0x40 MSTORE CALLVALUE DUP1 ISZERO PUSH1 0xF JUMPI PUSH1 0x0 DUP1 REVERT JUMPDEST POP PUSH1 0x4 CALLDATASIZE LT PUSH1 0x3C JUMPI PUSH1 0x0 CALLDATALOAD PUSH1 0xE0 SHR DUP1 PUSH4 0x84D4783 EQ PUSH1 0x41 JUMPI DUP1 PUSH4 0x2F4FC237 EQ PUSH1 0x70 JUMPI DUP1 PUSH4 0xAAC753B6 EQ PUSH1 0x8F JUMPI JUMPDEST PUSH1 0x0 DUP1 REVERT JUMPDEST PUSH1 0x5E PUSH1 0x4C CALLDATASIZE PUSH1 0x4 PUSH1 0xAC JUMP JUMPDEST PUSH1 0x0 SWAP1 DUP2 MSTORE PUSH1 0x20 DUP2 SWAP1 MSTORE PUSH1 0x40 SWAP1 KECCAK256 SLOAD SWAP1 JUMP JUMPDEST PUSH1 0x40 MLOAD SWAP1 DUP2 MSTORE PUSH1 0x20 ADD PUSH1 0x40 MLOAD DUP1 SWAP2 SUB SWAP1 RETURN JUMPDEST PUSH1 0x8D PUSH1 0x7B CALLDATASIZE PUSH1 0x4 PUSH1 0xC4 JUMP JUMPDEST PUSH1 0x0 SWAP2 DUP3 MSTORE PUSH1 0x20 DUP3 SWAP1 MSTORE PUSH1 0x40 SWAP1 SWAP2 KECCAK256 SSTORE JUMP JUMPDEST STOP JUMPDEST PUSH1 0x5E PUSH1 0x9A CALLDATASIZE PUSH1 0x4 PUSH1 0xAC JUMP JUMPDEST PUSH1 0x0 PUSH1 0x20 DUP2 SWAP1 MSTORE SWAP1 DUP2 MSTORE PUSH1 0x40 SWAP1 KECCAK256 SLOAD DUP2 JUMP JUMPDEST PUSH1 0x0 PUSH1 0x20 DUP3 DUP5 SUB SLT ISZERO PUSH1 0xBD JUMPI PUSH1 0x0 DUP1 REVERT JUMPDEST POP CALLDATALOAD SWAP2 SWAP1 POP JUMP JUMPDEST PUSH1 0x0 DUP1 PUSH1 0x40 DUP4 DUP6 SUB SLT ISZERO PUSH1 0xD6 JUMPI PUSH1 0x0 DUP1 REVERT JUMPDEST POP POP DUP1 CALLDATALOAD SWAP3 PUSH1 0x20 SWAP1 SWAP2 ADD CALLDATALOAD SWAP2 POP JUMP INVALID LOG2 PUSH5 0x6970667358 0x22 SLT KECCAK256 SWAP4 0xF7 0xAC 0xC 0xB4 NUMBER RETURNDATACOPY 0xBE ISZERO 0xCC DELEGATECALL 0xDA 0xDA PUSH6 0x6961CA219A62 ADDRESS SWAP11 DUP16 TLOAD SWAP11 0xC8 0xE4 GASLIMIT PUSH4 0x97FAAA64 PUSH20 0x6F6C634300081800330000000000000000000000 "},"methodIdentifiers":{"answers(bytes32)":"aac753b6","latestAnswer(bytes32)":"084d4783","setAnswer(bytes32,int256)":"2f4fc237"}}}}}