{
  "_format": "hh-sol-artifact-1",
  "contractName": "Bet1155",
  "sourceName": "contracts/Bet1155.sol",
  "abi": [
    {
      "inputs": [],
      "stateMutability": "nonpayable",
      "type": "constructor"
    },
    {
      "inputs": [
        {
          "internalType": "address",
          "name": "sender",
          "type": "address"
        },
        {
          "internalType": "uint256",
          "name": "balance",
          "type": "uint256"
        },
        {
          "internalType": "uint256",
          "name": "needed",
          "type": "uint256"
        },
        {
          "internalType": "uint256",
          "name": "tokenId",
          "type": "uint256"
        }
      ],
      "name": "ERC1155InsufficientBalance",
      "type": "error"
    },
    {
      "inputs": [
        {
          "internalType": "address",
          "name": "approver",
          "type": "address"
        }
      ],
      "name": "ERC1155InvalidApprover",
      "type": "error"
    },
    {
      "inputs": [
        {
          "internalType": "uint256",
          "name": "idsLength",
          "type": "uint256"
        },
        {
          "internalType": "uint256",
          "name": "valuesLength",
          "type": "uint256"
        }
      ],
      "name": "ERC1155InvalidArrayLength",
      "type": "error"
    },
    {
      "inputs": [
        {
          "internalType": "address",
          "name": "operator",
          "type": "address"
        }
      ],
      "name": "ERC1155InvalidOperator",
      "type": "error"
    },
    {
      "inputs": [
        {
          "internalType": "address",
          "name": "receiver",
          "type": "address"
        }
      ],
      "name": "ERC1155InvalidReceiver",
      "type": "error"
    },
    {
      "inputs": [
        {
          "internalType": "address",
          "name": "sender",
          "type": "address"
        }
      ],
      "name": "ERC1155InvalidSender",
      "type": "error"
    },
    {
      "inputs": [
        {
          "internalType": "address",
          "name": "operator",
          "type": "address"
        },
        {
          "internalType": "address",
          "name": "owner",
          "type": "address"
        }
      ],
      "name": "ERC1155MissingApprovalForAll",
      "type": "error"
    },
    {
      "inputs": [
        {
          "internalType": "address",
          "name": "owner",
          "type": "address"
        }
      ],
      "name": "OwnableInvalidOwner",
      "type": "error"
    },
    {
      "inputs": [
        {
          "internalType": "address",
          "name": "account",
          "type": "address"
        }
      ],
      "name": "OwnableUnauthorizedAccount",
      "type": "error"
    },
    {
      "anonymous": false,
      "inputs": [
        {
          "indexed": true,
          "internalType": "address",
          "name": "account",
          "type": "address"
        },
        {
          "indexed": true,
          "internalType": "address",
          "name": "operator",
          "type": "address"
        },
        {
          "indexed": false,
          "internalType": "bool",
          "name": "approved",
          "type": "bool"
        }
      ],
      "name": "ApprovalForAll",
      "type": "event"
    },
    {
      "anonymous": false,
      "inputs": [
        {
          "indexed": true,
          "internalType": "address",
          "name": "previousOwner",
          "type": "address"
        },
        {
          "indexed": true,
          "internalType": "address",
          "name": "newOwner",
          "type": "address"
        }
      ],
      "name": "OwnershipTransferred",
      "type": "event"
    },
    {
      "anonymous": false,
      "inputs": [
        {
          "indexed": true,
          "internalType": "address",
          "name": "operator",
          "type": "address"
        },
        {
          "indexed": true,
          "internalType": "address",
          "name": "from",
          "type": "address"
        },
        {
          "indexed": true,
          "internalType": "address",
          "name": "to",
          "type": "address"
        },
        {
          "indexed": false,
          "internalType": "uint256[]",
          "name": "ids",
          "type": "uint256[]"
        },
        {
          "indexed": false,
          "internalType": "uint256[]",
          "name": "values",
          "type": "uint256[]"
        }
      ],
      "name": "TransferBatch",
      "type": "event"
    },
    {
      "anonymous": false,
      "inputs": [
        {
          "indexed": true,
          "internalType": "address",
          "name": "operator",
          "type": "address"
        },
        {
          "indexed": true,
          "internalType": "address",
          "name": "from",
          "type": "address"
        },
        {
          "indexed": true,
          "internalType": "address",
          "name": "to",
          "type": "address"
        },
        {
          "indexed": false,
          "internalType": "uint256",
          "name": "id",
          "type": "uint256"
        },
        {
          "indexed": false,
          "internalType": "uint256",
          "name": "value",
          "type": "uint256"
        }
      ],
      "name": "TransferSingle",
      "type": "event"
    },
    {
      "anonymous": false,
      "inputs": [
        {
          "indexed": false,
          "internalType": "string",
          "name": "value",
          "type": "string"
        },
        {
          "indexed": true,
          "internalType": "uint256",
          "name": "id",
          "type": "uint256"
        }
      ],
      "name": "URI",
      "type": "event"
    },
    {
      "inputs": [
        {
          "internalType": "address",
          "name": "account",
          "type": "address"
        },
        {
          "internalType": "uint256",
          "name": "id",
          "type": "uint256"
        }
      ],
      "name": "balanceOf",
      "outputs": [
        {
          "internalType": "uint256",
          "name": "",
          "type": "uint256"
        }
      ],
      "stateMutability": "view",
      "type": "function"
    },
    {
      "inputs": [
        {
          "internalType": "address[]",
          "name": "accounts",
          "type": "address[]"
        },
        {
          "internalType": "uint256[]",
          "name": "ids",
          "type": "uint256[]"
        }
      ],
      "name": "balanceOfBatch",
      "outputs": [
        {
          "internalType": "uint256[]",
          "name": "",
          "type": "uint256[]"
        }
      ],
      "stateMutability": "view",
      "type": "function"
    },
    {
      "inputs": [
        {
          "internalType": "address",
          "name": "account",
          "type": "address"
        },
        {
          "internalType": "address",
          "name": "operator",
          "type": "address"
        }
      ],
      "name": "isApprovedForAll",
      "outputs": [
        {
          "internalType": "bool",
          "name": "",
          "type": "bool"
        }
      ],
      "stateMutability": "view",
      "type": "function"
    },
    {
      "inputs": [
        {
          "internalType": "uint256",
          "name": "tokenId",
          "type": "uint256"
        },
        {
          "internalType": "uint256",
          "name": "amount",
          "type": "uint256"
        }
      ],
      "name": "mint",
      "outputs": [],
      "stateMutability": "payable",
      "type": "function"
    },
    {
      "inputs": [],
      "name": "owner",
      "outputs": [
        {
          "internalType": "address",
          "name": "",
          "type": "address"
        }
      ],
      "stateMutability": "view",
      "type": "function"
    },
    {
      "inputs": [],
      "name": "renounceOwnership",
      "outputs": [],
      "stateMutability": "nonpayable",
      "type": "function"
    },
    {
      "inputs": [
        {
          "internalType": "uint256",
          "name": "tokenId",
          "type": "uint256"
        },
        {
          "internalType": "uint8",
          "name": "outcome",
          "type": "uint8"
        }
      ],
      "name": "resolve",
      "outputs": [],
      "stateMutability": "nonpayable",
      "type": "function"
    },
    {
      "inputs": [
        {
          "internalType": "uint256",
          "name": "",
          "type": "uint256"
        }
      ],
      "name": "result",
      "outputs": [
        {
          "internalType": "uint8",
          "name": "",
          "type": "uint8"
        }
      ],
      "stateMutability": "view",
      "type": "function"
    },
    {
      "inputs": [
        {
          "internalType": "address",
          "name": "from",
          "type": "address"
        },
        {
          "internalType": "address",
          "name": "to",
          "type": "address"
        },
        {
          "internalType": "uint256[]",
          "name": "ids",
          "type": "uint256[]"
        },
        {
          "internalType": "uint256[]",
          "name": "values",
          "type": "uint256[]"
        },
        {
          "internalType": "bytes",
          "name": "data",
          "type": "bytes"
        }
      ],
      "name": "safeBatchTransferFrom",
      "outputs": [],
      "stateMutability": "nonpayable",
      "type": "function"
    },
    {
      "inputs": [
        {
          "internalType": "address",
          "name": "from",
          "type": "address"
        },
        {
          "internalType": "address",
          "name": "to",
          "type": "address"
        },
        {
          "internalType": "uint256",
          "name": "id",
          "type": "uint256"
        },
        {
          "internalType": "uint256",
          "name": "value",
          "type": "uint256"
        },
        {
          "internalType": "bytes",
          "name": "data",
          "type": "bytes"
        }
      ],
      "name": "safeTransferFrom",
      "outputs": [],
      "stateMutability": "nonpayable",
      "type": "function"
    },
    {
      "inputs": [
        {
          "internalType": "address",
          "name": "operator",
          "type": "address"
        },
        {
          "internalType": "bool",
          "name": "approved",
          "type": "bool"
        }
      ],
      "name": "setApprovalForAll",
      "outputs": [],
      "stateMutability": "nonpayable",
      "type": "function"
    },
    {
      "inputs": [
        {
          "internalType": "string",
          "name": "newuri",
          "type": "string"
        }
      ],
      "name": "setURI",
      "outputs": [],
      "stateMutability": "nonpayable",
      "type": "function"
    },
    {
      "inputs": [
        {
          "internalType": "bytes4",
          "name": "interfaceId",
          "type": "bytes4"
        }
      ],
      "name": "supportsInterface",
      "outputs": [
        {
          "internalType": "bool",
          "name": "",
          "type": "bool"
        }
      ],
      "stateMutability": "view",
      "type": "function"
    },
    {
      "inputs": [
        {
          "internalType": "uint256",
          "name": "",
          "type": "uint256"
        }
      ],
      "name": "totalSupply",
      "outputs": [
        {
          "internalType": "uint256",
          "name": "",
          "type": "uint256"
        }
      ],
      "stateMutability": "view",
      "type": "function"
    },
    {
      "inputs": [
        {
          "internalType": "address",
          "name": "newOwner",
          "type": "address"
        }
      ],
      "name": "transferOwnership",
      "outputs": [],
      "stateMutability": "nonpayable",
      "type": "function"
    },
    {
      "inputs": [
        {
          "internalType": "uint256",
          "name": "",
          "type": "uint256"
        }
      ],
      "name": "uri",
      "outputs": [
        {
          "internalType": "string",
          "name": "",
          "type": "string"
        }
      ],
      "stateMutability": "view",
      "type": "function"
    }
  ],
  "bytecode": "0x60806040523480156200001157600080fd5b5060408051602081019091526000815233906200002e8162000070565b506001600160a01b0381166200005e57604051631e4fbdf760e01b81526000600482015260240160405180910390fd5b620000698162000082565b5062000247565b60026200007e82826200017b565b5050565b600380546001600160a01b038381166001600160a01b0319831681179093556040519116919082907f8be0079c531659141344cd1fd0a4f28419497f9722a3daafe3b4186f6b6457e090600090a35050565b634e487b7160e01b600052604160045260246000fd5b600181811c90821680620000ff57607f821691505b6020821081036200012057634e487b7160e01b600052602260045260246000fd5b50919050565b601f82111562000176576000816000526020600020601f850160051c81016020861015620001515750805b601f850160051c820191505b8181101562000172578281556001016200015d565b5050505b505050565b81516001600160401b03811115620001975762000197620000d4565b620001af81620001a88454620000ea565b8462000126565b602080601f831160018114620001e75760008415620001ce5750858301515b600019600386901b1c1916600185901b17855562000172565b600085815260208120601f198616915b828110156200021857888601518255948401946001909101908401620001f7565b5085821015620002375787850151600019600388901b60f8161c191681555b5050505050600190811b01905550565b61166b80620002576000396000f3fe6080604052600436106100f25760003560e01c8063715018a61161008a578063bd85b03911610059578063bd85b039146102c8578063e985e9c5146102f5578063f242432a14610315578063f2fde38b1461033557600080fd5b8063715018a61461024b5780638da5cb5b146102605780639c0e160814610288578063a22cb465146102a857600080fd5b80631b2ef1ca116100c65780631b2ef1ca146101a95780632eb2c2d6146101bc5780633c594059146101dc5780634e1273f41461021e57600080fd5b8062fdd58e146100f757806301ffc9a71461012a57806302fe53051461015a5780630e89341c1461017c575b600080fd5b34801561010357600080fd5b50610117610112366004610e5b565b610355565b6040519081526020015b60405180910390f35b34801561013657600080fd5b5061014a610145366004610e9b565b61037d565b6040519015158152602001610121565b34801561016657600080fd5b5061017a610175366004610f5e565b6103cd565b005b34801561018857600080fd5b5061019c610197366004610faf565b6103e1565b604051610121919061100e565b61017a6101b7366004611021565b610475565b3480156101c857600080fd5b5061017a6101d73660046110f6565b6104b7565b3480156101e857600080fd5b5061020c6101f7366004610faf565b60056020526000908152604090205460ff1681565b60405160ff9091168152602001610121565b34801561022a57600080fd5b5061023e6102393660046111a0565b610523565b604051610121919061129c565b34801561025757600080fd5b5061017a6105f0565b34801561026c57600080fd5b506003546040516001600160a01b039091168152602001610121565b34801561029457600080fd5b5061017a6102a33660046112af565b610604565b3480156102b457600080fd5b5061017a6102c33660046112e5565b610681565b3480156102d457600080fd5b506101176102e3366004610faf565b60046020526000908152604090205481565b34801561030157600080fd5b5061014a610310366004611316565b610690565b34801561032157600080fd5b5061017a610330366004611349565b6106be565b34801561034157600080fd5b5061017a6103503660046113ae565b61071d565b6000818152602081815260408083206001600160a01b03861684529091529020545b92915050565b60006001600160e01b03198216636cdb3d1360e11b14806103ae57506001600160e01b031982166303a24d0760e21b145b8061037757506301ffc9a760e01b6001600160e01b0319831614610377565b6103d5610758565b6103de81610785565b50565b6060600280546103f0906113c9565b80601f016020809104026020016040519081016040528092919081815260200182805461041c906113c9565b80156104695780601f1061043e57610100808354040283529160200191610469565b820191906000526020600020905b81548152906001019060200180831161044c57829003601f168201915b50505050509050919050565b61049033838360405180602001604052806000815250610791565b600082815260046020526040812080548392906104ae908490611403565b90915550505050565b336001600160a01b03861681148015906104d857506104d68682610690565b155b1561050e5760405163711bec9160e11b81526001600160a01b038083166004830152871660248201526044015b60405180910390fd5b61051b86868686866107ee565b505050505050565b606081518351146105545781518351604051635b05999160e01b815260048101929092526024820152604401610505565b6000835167ffffffffffffffff81111561057057610570610ebf565b604051908082528060200260200182016040528015610599578160200160208202803683370190505b50905060005b84518110156105e8576020808202860101516105c390602080840287010151610355565b8282815181106105d5576105d5611424565b602090810291909101015260010161059f565b509392505050565b6105f8610758565b6106026000610855565b565b61060c610758565b8060ff166001148061062157508060ff166002145b61065f5760405162461bcd60e51b815260206004820152600f60248201526e696e76616c6964206f7574636f6d6560881b6044820152606401610505565b600091825260056020526040909120805460ff191660ff909216919091179055565b61068c3383836108a7565b5050565b6001600160a01b03918216600090815260016020908152604080832093909416825291909152205460ff1690565b336001600160a01b03861681148015906106df57506106dd8682610690565b155b156107105760405163711bec9160e11b81526001600160a01b03808316600483015287166024820152604401610505565b61051b868686868661093d565b610725610758565b6001600160a01b03811661074f57604051631e4fbdf760e01b815260006004820152602401610505565b6103de81610855565b6003546001600160a01b031633146106025760405163118cdaa760e01b8152336004820152602401610505565b600261068c8282611487565b6001600160a01b0384166107bb57604051632bfa23e760e11b815260006004820152602401610505565b6040805160018082526020820186905281830190815260608201859052608082019092529061051b6000878484876109cb565b6001600160a01b03841661081857604051632bfa23e760e11b815260006004820152602401610505565b6001600160a01b03851661084157604051626a0d4560e21b815260006004820152602401610505565b61084e85858585856109cb565b5050505050565b600380546001600160a01b038381166001600160a01b0319831681179093556040519116919082907f8be0079c531659141344cd1fd0a4f28419497f9722a3daafe3b4186f6b6457e090600090a35050565b6001600160a01b0382166108d05760405162ced3e160e81b815260006004820152602401610505565b6001600160a01b03838116600081815260016020908152604080832094871680845294825291829020805460ff191686151590811790915591519182527f17307eab39ab6107e8899845ad3d59bd9653f200f220920489ca2b5937696c31910160405180910390a3505050565b6001600160a01b03841661096757604051632bfa23e760e11b815260006004820152602401610505565b6001600160a01b03851661099057604051626a0d4560e21b815260006004820152602401610505565b604080516001808252602082018690528183019081526060820185905260808201909252906109c287878484876109cb565b50505050505050565b6109d785858585610a1e565b6001600160a01b0384161561084e5782513390600103610a105760208481015190840151610a09838989858589610c32565b505061051b565b61051b818787878787610d56565b8051825114610a4d5781518151604051635b05999160e01b815260048101929092526024820152604401610505565b3360005b8351811015610b53576020818102858101820151908501909101516001600160a01b03881615610b04576000828152602081815260408083206001600160a01b038c16845290915290205481811015610add576040516303dee4c560e01b81526001600160a01b038a166004820152602481018290526044810183905260648101849052608401610505565b6000838152602081815260408083206001600160a01b038d16845290915290209082900390555b6001600160a01b03871615610b49576000828152602081815260408083206001600160a01b038b16845290915281208054839290610b43908490611403565b90915550505b5050600101610a51565b508251600103610bd45760208301516000906020840151909150856001600160a01b0316876001600160a01b0316846001600160a01b03167fc3d58168c5ae7397731d063d5bbf3d657854427343f4c083240f7aacaa2d0f628585604051610bc5929190918252602082015260400190565b60405180910390a4505061084e565b836001600160a01b0316856001600160a01b0316826001600160a01b03167f4a39dc06d4c0dbc64b70af90fd698a233a518aa5d07e595d983b8c0526c8f7fb8686604051610c23929190611547565b60405180910390a45050505050565b6001600160a01b0384163b1561051b5760405163f23a6e6160e01b81526001600160a01b0385169063f23a6e6190610c769089908990889088908890600401611575565b6020604051808303816000875af1925050508015610cb1575060408051601f3d908101601f19168201909252610cae918101906115ba565b60015b610d1a573d808015610cdf576040519150601f19603f3d011682016040523d82523d6000602084013e610ce4565b606091505b508051600003610d1257604051632bfa23e760e11b81526001600160a01b0386166004820152602401610505565b805160208201fd5b6001600160e01b0319811663f23a6e6160e01b146109c257604051632bfa23e760e11b81526001600160a01b0386166004820152602401610505565b6001600160a01b0384163b1561051b5760405163bc197c8160e01b81526001600160a01b0385169063bc197c8190610d9a90899089908890889088906004016115d7565b6020604051808303816000875af1925050508015610dd5575060408051601f3d908101601f19168201909252610dd2918101906115ba565b60015b610e03573d808015610cdf576040519150601f19603f3d011682016040523d82523d6000602084013e610ce4565b6001600160e01b0319811663bc197c8160e01b146109c257604051632bfa23e760e11b81526001600160a01b0386166004820152602401610505565b80356001600160a01b0381168114610e5657600080fd5b919050565b60008060408385031215610e6e57600080fd5b610e7783610e3f565b946020939093013593505050565b6001600160e01b0319811681146103de57600080fd5b600060208284031215610ead57600080fd5b8135610eb881610e85565b9392505050565b634e487b7160e01b600052604160045260246000fd5b604051601f8201601f1916810167ffffffffffffffff81118282101715610efe57610efe610ebf565b604052919050565b600067ffffffffffffffff831115610f2057610f20610ebf565b610f33601f8401601f1916602001610ed5565b9050828152838383011115610f4757600080fd5b828260208301376000602084830101529392505050565b600060208284031215610f7057600080fd5b813567ffffffffffffffff811115610f8757600080fd5b8201601f81018413610f9857600080fd5b610fa784823560208401610f06565b949350505050565b600060208284031215610fc157600080fd5b5035919050565b6000815180845260005b81811015610fee57602081850181015186830182015201610fd2565b506000602082860101526020601f19601f83011685010191505092915050565b602081526000610eb86020830184610fc8565b6000806040838503121561103457600080fd5b50508035926020909101359150565b600067ffffffffffffffff82111561105d5761105d610ebf565b5060051b60200190565b600082601f83011261107857600080fd5b8135602061108d61108883611043565b610ed5565b8083825260208201915060208460051b8701019350868411156110af57600080fd5b602086015b848110156110cb57803583529183019183016110b4565b509695505050505050565b600082601f8301126110e757600080fd5b610eb883833560208501610f06565b600080600080600060a0868803121561110e57600080fd5b61111786610e3f565b945061112560208701610e3f565b9350604086013567ffffffffffffffff8082111561114257600080fd5b61114e89838a01611067565b9450606088013591508082111561116457600080fd5b61117089838a01611067565b9350608088013591508082111561118657600080fd5b50611193888289016110d6565b9150509295509295909350565b600080604083850312156111b357600080fd5b823567ffffffffffffffff808211156111cb57600080fd5b818501915085601f8301126111df57600080fd5b813560206111ef61108883611043565b82815260059290921b8401810191818101908984111561120e57600080fd5b948201945b838610156112335761122486610e3f565b82529482019490820190611213565b9650508601359250508082111561124957600080fd5b5061125685828601611067565b9150509250929050565b60008151808452602080850194506020840160005b8381101561129157815187529582019590820190600101611275565b509495945050505050565b602081526000610eb86020830184611260565b600080604083850312156112c257600080fd5b82359150602083013560ff811681146112da57600080fd5b809150509250929050565b600080604083850312156112f857600080fd5b61130183610e3f565b9150602083013580151581146112da57600080fd5b6000806040838503121561132957600080fd5b61133283610e3f565b915061134060208401610e3f565b90509250929050565b600080600080600060a0868803121561136157600080fd5b61136a86610e3f565b945061137860208701610e3f565b93506040860135925060608601359150608086013567ffffffffffffffff8111156113a257600080fd5b611193888289016110d6565b6000602082840312156113c057600080fd5b610eb882610e3f565b600181811c908216806113dd57607f821691505b6020821081036113fd57634e487b7160e01b600052602260045260246000fd5b50919050565b8082018082111561037757634e487b7160e01b600052601160045260246000fd5b634e487b7160e01b600052603260045260246000fd5b601f821115611482576000816000526020600020601f850160051c810160208610156114635750805b601f850160051c820191505b8181101561051b5782815560010161146f565b505050565b815167ffffffffffffffff8111156114a1576114a1610ebf565b6114b5816114af84546113c9565b8461143a565b602080601f8311600181146114ea57600084156114d25750858301515b600019600386901b1c1916600185901b17855561051b565b600085815260208120601f198616915b82811015611519578886015182559484019460019091019084016114fa565b50858210156115375787850151600019600388901b60f8161c191681555b5050505050600190811b01905550565b60408152600061155a6040830185611260565b828103602084015261156c8185611260565b95945050505050565b6001600160a01b03868116825285166020820152604081018490526060810183905260a0608082018190526000906115af90830184610fc8565b979650505050505050565b6000602082840312156115cc57600080fd5b8151610eb881610e85565b6001600160a01b0386811682528516602082015260a06040820181905260009061160390830186611260565b82810360608401526116158186611260565b905082810360808401526116298185610fc8565b9897505050505050505056fea2646970667358221220ef1d4d404ae34531222f095fa8635540a513add87d83f7192b140a265a367d1a64736f6c63430008180033",
  "linkReferences": {},
  "deployedLinkReferences": {}
}